{
  "address": "0x86f3FdE05CbbffA1Ce31129368994AC965bba914",
  "abi": [
    {
      "inputs": [],
      "stateMutability": "nonpayable",
      "type": "constructor"
    },
    {
      "inputs": [],
      "name": "AccessControlBadConfirmation",
      "type": "error"
    },
    {
      "inputs": [
        {
          "internalType": "address",
          "name": "account",
          "type": "address"
        },
        {
          "internalType": "bytes32",
          "name": "neededRole",
          "type": "bytes32"
        }
      ],
      "name": "AccessControlUnauthorizedAccount",
      "type": "error"
    },
    {
      "inputs": [
        {
          "internalType": "address",
          "name": "sender",
          "type": "address"
        },
        {
          "internalType": "uint256",
          "name": "balance",
          "type": "uint256"
        },
        {
          "internalType": "uint256",
          "name": "needed",
          "type": "uint256"
        },
        {
          "internalType": "uint256",
          "name": "tokenId",
          "type": "uint256"
        }
      ],
      "name": "ERC1155InsufficientBalance",
      "type": "error"
    },
    {
      "inputs": [
        {
          "internalType": "address",
          "name": "approver",
          "type": "address"
        }
      ],
      "name": "ERC1155InvalidApprover",
      "type": "error"
    },
    {
      "inputs": [
        {
          "internalType": "uint256",
          "name": "idsLength",
          "type": "uint256"
        },
        {
          "internalType": "uint256",
          "name": "valuesLength",
          "type": "uint256"
        }
      ],
      "name": "ERC1155InvalidArrayLength",
      "type": "error"
    },
    {
      "inputs": [
        {
          "internalType": "address",
          "name": "operator",
          "type": "address"
        }
      ],
      "name": "ERC1155InvalidOperator",
      "type": "error"
    },
    {
      "inputs": [
        {
          "internalType": "address",
          "name": "receiver",
          "type": "address"
        }
      ],
      "name": "ERC1155InvalidReceiver",
      "type": "error"
    },
    {
      "inputs": [
        {
          "internalType": "address",
          "name": "sender",
          "type": "address"
        }
      ],
      "name": "ERC1155InvalidSender",
      "type": "error"
    },
    {
      "inputs": [
        {
          "internalType": "address",
          "name": "operator",
          "type": "address"
        },
        {
          "internalType": "address",
          "name": "owner",
          "type": "address"
        }
      ],
      "name": "ERC1155MissingApprovalForAll",
      "type": "error"
    },
    {
      "anonymous": false,
      "inputs": [
        {
          "indexed": true,
          "internalType": "address",
          "name": "account",
          "type": "address"
        },
        {
          "indexed": true,
          "internalType": "address",
          "name": "operator",
          "type": "address"
        },
        {
          "indexed": false,
          "internalType": "bool",
          "name": "approved",
          "type": "bool"
        }
      ],
      "name": "ApprovalForAll",
      "type": "event"
    },
    {
      "anonymous": false,
      "inputs": [
        {
          "indexed": true,
          "internalType": "uint256",
          "name": "eventId",
          "type": "uint256"
        },
        {
          "indexed": true,
          "internalType": "address",
          "name": "student",
          "type": "address"
        },
        {
          "indexed": false,
          "internalType": "uint256",
          "name": "timestamp",
          "type": "uint256"
        }
      ],
      "name": "AttendanceMarked",
      "type": "event"
    },
    {
      "anonymous": false,
      "inputs": [
        {
          "indexed": true,
          "internalType": "uint256",
          "name": "eventId",
          "type": "uint256"
        }
      ],
      "name": "EventClosed",
      "type": "event"
    },
    {
      "anonymous": false,
      "inputs": [
        {
          "indexed": true,
          "internalType": "uint256",
          "name": "eventId",
          "type": "uint256"
        },
        {
          "indexed": false,
          "internalType": "string",
          "name": "courseName",
          "type": "string"
        },
        {
          "indexed": true,
          "internalType": "address",
          "name": "professor",
          "type": "address"
        },
        {
          "indexed": false,
          "internalType": "uint256",
          "name": "startTime",
          "type": "uint256"
        },
        {
          "indexed": false,
          "internalType": "uint256",
          "name": "endTime",
          "type": "uint256"
        }
      ],
      "name": "EventCreated",
      "type": "event"
    },
    {
      "anonymous": false,
      "inputs": [
        {
          "indexed": true,
          "internalType": "address",
          "name": "professor",
          "type": "address"
        }
      ],
      "name": "ProfessorAdded",
      "type": "event"
    },
    {
      "anonymous": false,
      "inputs": [
        {
          "indexed": true,
          "internalType": "bytes32",
          "name": "role",
          "type": "bytes32"
        },
        {
          "indexed": true,
          "internalType": "bytes32",
          "name": "previousAdminRole",
          "type": "bytes32"
        },
        {
          "indexed": true,
          "internalType": "bytes32",
          "name": "newAdminRole",
          "type": "bytes32"
        }
      ],
      "name": "RoleAdminChanged",
      "type": "event"
    },
    {
      "anonymous": false,
      "inputs": [
        {
          "indexed": true,
          "internalType": "bytes32",
          "name": "role",
          "type": "bytes32"
        },
        {
          "indexed": true,
          "internalType": "address",
          "name": "account",
          "type": "address"
        },
        {
          "indexed": true,
          "internalType": "address",
          "name": "sender",
          "type": "address"
        }
      ],
      "name": "RoleGranted",
      "type": "event"
    },
    {
      "anonymous": false,
      "inputs": [
        {
          "indexed": true,
          "internalType": "bytes32",
          "name": "role",
          "type": "bytes32"
        },
        {
          "indexed": true,
          "internalType": "address",
          "name": "account",
          "type": "address"
        },
        {
          "indexed": true,
          "internalType": "address",
          "name": "sender",
          "type": "address"
        }
      ],
      "name": "RoleRevoked",
      "type": "event"
    },
    {
      "anonymous": false,
      "inputs": [
        {
          "indexed": true,
          "internalType": "address",
          "name": "operator",
          "type": "address"
        },
        {
          "indexed": true,
          "internalType": "address",
          "name": "from",
          "type": "address"
        },
        {
          "indexed": true,
          "internalType": "address",
          "name": "to",
          "type": "address"
        },
        {
          "indexed": false,
          "internalType": "uint256[]",
          "name": "ids",
          "type": "uint256[]"
        },
        {
          "indexed": false,
          "internalType": "uint256[]",
          "name": "values",
          "type": "uint256[]"
        }
      ],
      "name": "TransferBatch",
      "type": "event"
    },
    {
      "anonymous": false,
      "inputs": [
        {
          "indexed": true,
          "internalType": "address",
          "name": "operator",
          "type": "address"
        },
        {
          "indexed": true,
          "internalType": "address",
          "name": "from",
          "type": "address"
        },
        {
          "indexed": true,
          "internalType": "address",
          "name": "to",
          "type": "address"
        },
        {
          "indexed": false,
          "internalType": "uint256",
          "name": "id",
          "type": "uint256"
        },
        {
          "indexed": false,
          "internalType": "uint256",
          "name": "value",
          "type": "uint256"
        }
      ],
      "name": "TransferSingle",
      "type": "event"
    },
    {
      "anonymous": false,
      "inputs": [
        {
          "indexed": false,
          "internalType": "string",
          "name": "value",
          "type": "string"
        },
        {
          "indexed": true,
          "internalType": "uint256",
          "name": "id",
          "type": "uint256"
        }
      ],
      "name": "URI",
      "type": "event"
    },
    {
      "inputs": [],
      "name": "DEFAULT_ADMIN_ROLE",
      "outputs": [
        {
          "internalType": "bytes32",
          "name": "",
          "type": "bytes32"
        }
      ],
      "stateMutability": "view",
      "type": "function"
    },
    {
      "inputs": [],
      "name": "PROFESSOR_ROLE",
      "outputs": [
        {
          "internalType": "bytes32",
          "name": "",
          "type": "bytes32"
        }
      ],
      "stateMutability": "view",
      "type": "function"
    },
    {
      "inputs": [],
      "name": "QR_VALIDITY_WINDOW",
      "outputs": [
        {
          "internalType": "uint256",
          "name": "",
          "type": "uint256"
        }
      ],
      "stateMutability": "view",
      "type": "function"
    },
    {
      "inputs": [
        {
          "internalType": "address",
          "name": "_professor",
          "type": "address"
        }
      ],
      "name": "addProfessor",
      "outputs": [],
      "stateMutability": "nonpayable",
      "type": "function"
    },
    {
      "inputs": [
        {
          "internalType": "uint256",
          "name": "",
          "type": "uint256"
        },
        {
          "internalType": "address",
          "name": "",
          "type": "address"
        }
      ],
      "name": "attendanceTimestamp",
      "outputs": [
        {
          "internalType": "uint256",
          "name": "",
          "type": "uint256"
        }
      ],
      "stateMutability": "view",
      "type": "function"
    },
    {
      "inputs": [
        {
          "internalType": "uint256",
          "name": "_eventId",
          "type": "uint256"
        }
      ],
      "name": "autoCloseEvent",
      "outputs": [],
      "stateMutability": "nonpayable",
      "type": "function"
    },
    {
      "inputs": [
        {
          "internalType": "address",
          "name": "account",
          "type": "address"
        },
        {
          "internalType": "uint256",
          "name": "id",
          "type": "uint256"
        }
      ],
      "name": "balanceOf",
      "outputs": [
        {
          "internalType": "uint256",
          "name": "",
          "type": "uint256"
        }
      ],
      "stateMutability": "view",
      "type": "function"
    },
    {
      "inputs": [
        {
          "internalType": "address[]",
          "name": "accounts",
          "type": "address[]"
        },
        {
          "internalType": "uint256[]",
          "name": "ids",
          "type": "uint256[]"
        }
      ],
      "name": "balanceOfBatch",
      "outputs": [
        {
          "internalType": "uint256[]",
          "name": "",
          "type": "uint256[]"
        }
      ],
      "stateMutability": "view",
      "type": "function"
    },
    {
      "inputs": [
        {
          "internalType": "uint256",
          "name": "_eventId",
          "type": "uint256"
        }
      ],
      "name": "closeEvent",
      "outputs": [],
      "stateMutability": "nonpayable",
      "type": "function"
    },
    {
      "inputs": [
        {
          "internalType": "string",
          "name": "_courseName",
          "type": "string"
        },
        {
          "internalType": "string",
          "name": "_courseCode",
          "type": "string"
        },
        {
          "internalType": "uint256",
          "name": "_maxAttendees",
          "type": "uint256"
        },
        {
          "internalType": "string",
          "name": "_metadata",
          "type": "string"
        },
        {
          "internalType": "uint256",
          "name": "_durationMinutes",
          "type": "uint256"
        }
      ],
      "name": "createClassEvent",
      "outputs": [
        {
          "internalType": "uint256",
          "name": "",
          "type": "uint256"
        }
      ],
      "stateMutability": "nonpayable",
      "type": "function"
    },
    {
      "inputs": [],
      "name": "eventCounter",
      "outputs": [
        {
          "internalType": "uint256",
          "name": "",
          "type": "uint256"
        }
      ],
      "stateMutability": "view",
      "type": "function"
    },
    {
      "inputs": [
        {
          "internalType": "uint256",
          "name": "",
          "type": "uint256"
        }
      ],
      "name": "events",
      "outputs": [
        {
          "internalType": "uint256",
          "name": "eventId",
          "type": "uint256"
        },
        {
          "internalType": "string",
          "name": "courseName",
          "type": "string"
        },
        {
          "internalType": "string",
          "name": "courseCode",
          "type": "string"
        },
        {
          "internalType": "address",
          "name": "professor",
          "type": "address"
        },
        {
          "internalType": "uint256",
          "name": "eventTimestamp",
          "type": "uint256"
        },
        {
          "internalType": "uint256",
          "name": "maxAttendees",
          "type": "uint256"
        },
        {
          "internalType": "uint256",
          "name": "currentAttendees",
          "type": "uint256"
        },
        {
          "internalType": "bool",
          "name": "isActive",
          "type": "bool"
        },
        {
          "internalType": "string",
          "name": "metadata",
          "type": "string"
        },
        {
          "internalType": "uint256",
          "name": "startTime",
          "type": "uint256"
        },
        {
          "internalType": "uint256",
          "name": "endTime",
          "type": "uint256"
        }
      ],
      "stateMutability": "view",
      "type": "function"
    },
    {
      "inputs": [
        {
          "internalType": "uint256",
          "name": "_eventId",
          "type": "uint256"
        }
      ],
      "name": "getEventDetails",
      "outputs": [
        {
          "internalType": "string",
          "name": "courseName",
          "type": "string"
        },
        {
          "internalType": "string",
          "name": "courseCode",
          "type": "string"
        },
        {
          "internalType": "address",
          "name": "professor",
          "type": "address"
        },
        {
          "internalType": "uint256",
          "name": "currentAttendees",
          "type": "uint256"
        },
        {
          "internalType": "uint256",
          "name": "maxAttendees",
          "type": "uint256"
        },
        {
          "internalType": "bool",
          "name": "isActive",
          "type": "bool"
        },
        {
          "internalType": "uint256",
          "name": "startTime",
          "type": "uint256"
        },
        {
          "internalType": "uint256",
          "name": "endTime",
          "type": "uint256"
        }
      ],
      "stateMutability": "view",
      "type": "function"
    },
    {
      "inputs": [
        {
          "internalType": "bytes32",
          "name": "role",
          "type": "bytes32"
        }
      ],
      "name": "getRoleAdmin",
      "outputs": [
        {
          "internalType": "bytes32",
          "name": "",
          "type": "bytes32"
        }
      ],
      "stateMutability": "view",
      "type": "function"
    },
    {
      "inputs": [
        {
          "internalType": "address",
          "name": "_student",
          "type": "address"
        }
      ],
      "name": "getStudentEvents",
      "outputs": [
        {
          "internalType": "uint256[]",
          "name": "",
          "type": "uint256[]"
        }
      ],
      "stateMutability": "view",
      "type": "function"
    },
    {
      "inputs": [],
      "name": "getTotalEvents",
      "outputs": [
        {
          "internalType": "uint256",
          "name": "",
          "type": "uint256"
        }
      ],
      "stateMutability": "view",
      "type": "function"
    },
    {
      "inputs": [
        {
          "internalType": "bytes32",
          "name": "role",
          "type": "bytes32"
        },
        {
          "internalType": "address",
          "name": "account",
          "type": "address"
        }
      ],
      "name": "grantRole",
      "outputs": [],
      "stateMutability": "nonpayable",
      "type": "function"
    },
    {
      "inputs": [
        {
          "internalType": "uint256",
          "name": "",
          "type": "uint256"
        },
        {
          "internalType": "address",
          "name": "",
          "type": "address"
        }
      ],
      "name": "hasAttended",
      "outputs": [
        {
          "internalType": "bool",
          "name": "",
          "type": "bool"
        }
      ],
      "stateMutability": "view",
      "type": "function"
    },
    {
      "inputs": [
        {
          "internalType": "bytes32",
          "name": "role",
          "type": "bytes32"
        },
        {
          "internalType": "address",
          "name": "account",
          "type": "address"
        }
      ],
      "name": "hasRole",
      "outputs": [
        {
          "internalType": "bool",
          "name": "",
          "type": "bool"
        }
      ],
      "stateMutability": "view",
      "type": "function"
    },
    {
      "inputs": [
        {
          "internalType": "address",
          "name": "account",
          "type": "address"
        },
        {
          "internalType": "address",
          "name": "operator",
          "type": "address"
        }
      ],
      "name": "isApprovedForAll",
      "outputs": [
        {
          "internalType": "bool",
          "name": "",
          "type": "bool"
        }
      ],
      "stateMutability": "view",
      "type": "function"
    },
    {
      "inputs": [
        {
          "internalType": "address",
          "name": "_address",
          "type": "address"
        }
      ],
      "name": "isProfessor",
      "outputs": [
        {
          "internalType": "bool",
          "name": "",
          "type": "bool"
        }
      ],
      "stateMutability": "view",
      "type": "function"
    },
    {
      "inputs": [
        {
          "internalType": "uint256",
          "name": "_eventId",
          "type": "uint256"
        },
        {
          "internalType": "uint256",
          "name": "",
          "type": "uint256"
        },
        {
          "internalType": "bytes",
          "name": "",
          "type": "bytes"
        }
      ],
      "name": "markAttendanceWithQR",
      "outputs": [],
      "stateMutability": "nonpayable",
      "type": "function"
    },
    {
      "inputs": [
        {
          "internalType": "bytes32",
          "name": "role",
          "type": "bytes32"
        },
        {
          "internalType": "address",
          "name": "callerConfirmation",
          "type": "address"
        }
      ],
      "name": "renounceRole",
      "outputs": [],
      "stateMutability": "nonpayable",
      "type": "function"
    },
    {
      "inputs": [
        {
          "internalType": "bytes32",
          "name": "role",
          "type": "bytes32"
        },
        {
          "internalType": "address",
          "name": "account",
          "type": "address"
        }
      ],
      "name": "revokeRole",
      "outputs": [],
      "stateMutability": "nonpayable",
      "type": "function"
    },
    {
      "inputs": [
        {
          "internalType": "address",
          "name": "from",
          "type": "address"
        },
        {
          "internalType": "address",
          "name": "to",
          "type": "address"
        },
        {
          "internalType": "uint256[]",
          "name": "ids",
          "type": "uint256[]"
        },
        {
          "internalType": "uint256[]",
          "name": "values",
          "type": "uint256[]"
        },
        {
          "internalType": "bytes",
          "name": "data",
          "type": "bytes"
        }
      ],
      "name": "safeBatchTransferFrom",
      "outputs": [],
      "stateMutability": "nonpayable",
      "type": "function"
    },
    {
      "inputs": [
        {
          "internalType": "address",
          "name": "from",
          "type": "address"
        },
        {
          "internalType": "address",
          "name": "to",
          "type": "address"
        },
        {
          "internalType": "uint256",
          "name": "id",
          "type": "uint256"
        },
        {
          "internalType": "uint256",
          "name": "value",
          "type": "uint256"
        },
        {
          "internalType": "bytes",
          "name": "data",
          "type": "bytes"
        }
      ],
      "name": "safeTransferFrom",
      "outputs": [],
      "stateMutability": "nonpayable",
      "type": "function"
    },
    {
      "inputs": [
        {
          "internalType": "address",
          "name": "operator",
          "type": "address"
        },
        {
          "internalType": "bool",
          "name": "approved",
          "type": "bool"
        }
      ],
      "name": "setApprovalForAll",
      "outputs": [],
      "stateMutability": "nonpayable",
      "type": "function"
    },
    {
      "inputs": [
        {
          "internalType": "address",
          "name": "",
          "type": "address"
        },
        {
          "internalType": "uint256",
          "name": "",
          "type": "uint256"
        }
      ],
      "name": "studentEvents",
      "outputs": [
        {
          "internalType": "uint256",
          "name": "",
          "type": "uint256"
        }
      ],
      "stateMutability": "view",
      "type": "function"
    },
    {
      "inputs": [
        {
          "internalType": "bytes4",
          "name": "interfaceId",
          "type": "bytes4"
        }
      ],
      "name": "supportsInterface",
      "outputs": [
        {
          "internalType": "bool",
          "name": "",
          "type": "bool"
        }
      ],
      "stateMutability": "view",
      "type": "function"
    },
    {
      "inputs": [
        {
          "internalType": "uint256",
          "name": "_eventId",
          "type": "uint256"
        }
      ],
      "name": "uri",
      "outputs": [
        {
          "internalType": "string",
          "name": "",
          "type": "string"
        }
      ],
      "stateMutability": "view",
      "type": "function"
    },
    {
      "inputs": [
        {
          "internalType": "uint256",
          "name": "_eventId",
          "type": "uint256"
        },
        {
          "internalType": "address",
          "name": "_student",
          "type": "address"
        }
      ],
      "name": "verifyAttendance",
      "outputs": [
        {
          "internalType": "bool",
          "name": "attended",
          "type": "bool"
        },
        {
          "internalType": "uint256",
          "name": "timestamp",
          "type": "uint256"
        }
      ],
      "stateMutability": "view",
      "type": "function"
    }
  ],
  "transactionHash": "0xd68fb8b80b3461b0f4710214e14a34b744b35c5d7a5f245bf81a3c587d37e65c",
  "args": [],
  "numDeployments": 1,
  "solcInputHash": "9f4dc9b12eb3a19d8a5d599b42b12ed8",
  "bytecode": "0x608060405234801561001057600080fd5b5060408051602081019091526000815261002981610066565b50610035600033610076565b506100607f577f08e4a510a24c05fb531f78cace5d373d442eb2ba1e22f5bcf2bf4248c21e33610076565b50610283565b600261007282826101c5565b5050565b60008281526003602090815260408083206001600160a01b038516845290915281205460ff1661011c5760008381526003602090815260408083206001600160a01b03861684529091529020805460ff191660011790556100d43390565b6001600160a01b0316826001600160a01b0316847f2f8788117e7eff1d82e926ec794901d17c78024a50270940304540a733656f0d60405160405180910390a4506001610120565b5060005b92915050565b634e487b7160e01b600052604160045260246000fd5b600181811c9082168061015057607f821691505b60208210810361017057634e487b7160e01b600052602260045260246000fd5b50919050565b601f8211156101c057806000526020600020601f840160051c8101602085101561019d5750805b601f840160051c820191505b818110156101bd57600081556001016101a9565b50505b505050565b81516001600160401b038111156101de576101de610126565b6101f2816101ec845461013c565b84610176565b6020601f821160018114610226576000831561020e5750848201515b600019600385901b1c1916600184901b1784556101bd565b600084815260208120601f198516915b828110156102565787850151825560209485019460019092019101610236565b50848210156102745786840151600019600387901b60f8161c191681555b50505050600190811b01905550565b612538806102926000396000f3fe608060405234801561001057600080fd5b50600436106101e45760003560e01c8063616069401161010f578063b2b17ea0116100a2578063d547741f11610071578063d547741f146104ad578063e985e9c5146104c0578063ec38d5a0146104d3578063f242432a146104fa57600080fd5b8063b2b17ea01461046a578063be4f791d1461047d578063c1dc6e2314610490578063c81cf7711461049857600080fd5b8063a0ea32c2116100de578063a0ea32c2146103f6578063a217fddf14610424578063a22cb4651461042c578063ac7d2a421461043f57600080fd5b806361606940146103b557806385fcd154146103bd57806391d14854146103d0578063a0677a2d146103e357600080fd5b80632eb2c2d61161018757806336568abe1161015657806336568abe146103735780634268edaa146103865780634e1273f41461039957806352c55db9146103ac57600080fd5b80632eb2c2d61461031a5780632ee07c001461032d5780632f2ff15d1461034057806333295c101461035357600080fd5b80630e89341c116101c35780630e89341c1461025c5780631860cf441461027c578063228b0b50146102e2578063248a9ca3146102f757600080fd5b8062fdd58e146101e957806301ffc9a71461020f5780630b79143014610232575b600080fd5b6101fc6101f7366004611b51565b61050d565b6040519081526020015b60405180910390f35b61022261021d366004611b91565b610535565b6040519015158152602001610206565b610245610240366004611bb5565b610540565b6040516102069b9a99989796959493929190611c14565b61026f61026a366004611bb5565b610740565b6040516102069190611c9f565b6102cb61028a366004611cb2565b60008281526006602090815260408083206001600160a01b03949094168084529382528083205494835260078252808320938352929052205460ff90911691565b604080519215158352602083019190915201610206565b6102f56102f0366004611d9a565b6107e5565b005b6101fc610305366004611bb5565b60009081526003602052604090206001015490565b6102f5610328366004611e79565b610a95565b6102f561033b366004611bb5565b610afc565b6102f561034e366004611cb2565b610ba2565b610366610361366004611f2c565b610bcd565b6040516102069190611f83565b6102f5610381366004611cb2565b610c38565b6102f5610394366004611f2c565b610c70565b6103666103a7366004611f96565b610ccb565b6101fc60045481565b6004546101fc565b6101fc6103cb366004611b51565b610d97565b6102226103de366004611cb2565b610dc8565b6102f56103f1366004611bb5565b610df3565b610222610404366004611cb2565b600660209081526000928352604080842090915290825290205460ff1681565b6101fc600081565b6102f561043a36600461205d565b610e48565b6101fc61044d366004611cb2565b600760209081526000928352604080842090915290825290205481565b610222610478366004611f2c565b610e57565b6101fc61048b366004612099565b610e71565b6101fc600f81565b6101fc6000805160206124e383398151915281565b6102f56104bb366004611cb2565b6110ce565b6102226104ce36600461213c565b6110f3565b6104e66104e1366004611bb5565b611121565b604051610206989796959493929190612166565b6102f56105083660046121c9565b6112be565b6000818152602081815260408083206001600160a01b03861684529091529020545b92915050565b600061052f8261131d565b6005602052600090815260409020805460018201805491929161056290612221565b80601f016020809104026020016040519081016040528092919081815260200182805461058e90612221565b80156105db5780601f106105b0576101008083540402835291602001916105db565b820191906000526020600020905b8154815290600101906020018083116105be57829003601f168201915b5050505050908060020180546105f090612221565b80601f016020809104026020016040519081016040528092919081815260200182805461061c90612221565b80156106695780601f1061063e57610100808354040283529160200191610669565b820191906000526020600020905b81548152906001019060200180831161064c57829003601f168201915b505050506003830154600484015460058501546006860154600787015460088801805497986001600160a01b03909616979496509294919360ff90911692906106b190612221565b80601f01602080910402602001604051908101604052809291908181526020018280546106dd90612221565b801561072a5780601f106106ff5761010080835404028352916020019161072a565b820191906000526020600020905b81548152906001019060200180831161070d57829003601f168201915b50505050509080600901549080600a015490508b565b600081815260056020526040902060080180546060919061076090612221565b80601f016020809104026020016040519081016040528092919081815260200182805461078c90612221565b80156107d95780601f106107ae576101008083540402835291602001916107d9565b820191906000526020600020905b8154815290600101906020018083116107bc57829003601f168201915b50505050509050919050565b60008381526005602052604090208054841461083b5760405162461bcd60e51b815260206004820152601060248201526f4576656e746f206e6f2065786973746560801b60448201526064015b60405180910390fd5b600781015460ff166108825760405162461bcd60e51b815260206004820152601060248201526f4576656e746f206e6f2061637469766f60801b6044820152606401610832565b600084815260066020908152604080832033845290915290205460ff16156108ec5760405162461bcd60e51b815260206004820152601960248201527f5961207265676973747261737465206173697374656e636961000000000000006044820152606401610832565b80600901544210156109405760405162461bcd60e51b815260206004820152601860248201527f4c6120636c6173652061756e206e6f20636f6d69656e7a6100000000000000006044820152606401610832565b80600a015442111561098a5760405162461bcd60e51b81526020600482015260136024820152724c6120636c617365207961207465726d696e6f60681b6044820152606401610832565b80600501548160060154106109ce5760405162461bcd60e51b815260206004820152600a6024820152694375706f206c6c656e6f60b01b6044820152606401610832565b600084815260066020818152604080842033808652908352818520805460ff191660011790558885526007835281852090855290915282204290558201805491610a1783612271565b9091555050336000818152600860209081526040808320805460018181018355918552838520018990558151928301909152918152610a5892918791611342565b604051428152339085907f58db8ff11b1f2ad89b5a611a7f0c48c73c8579db530ad0fd39df6523bc8672619060200160405180910390a350505050565b336001600160a01b0386168114801590610ab65750610ab486826110f3565b155b15610ae75760405163711bec9160e11b81526001600160a01b03808316600483015287166024820152604401610832565b610af4868686868661139f565b505050505050565b600081815260056020526040902060038101546001600160a01b0316331480610b2b5750610b2b600033610dc8565b610b675760405162461bcd60e51b815260206004820152600d60248201526c4e6f206175746f72697a61646f60981b6044820152606401610832565b60078101805460ff1916905560405182907fe3ac82dc75b50536ff2bf2861de7d76422590831b9e557b52b35b4c99df25ff990600090a25050565b600082815260036020526040902060010154610bbd81611406565b610bc78383611413565b50505050565b6001600160a01b0381166000908152600860209081526040918290208054835181840281018401909452808452606093928301828280156107d957602002820191906000526020600020905b815481526020019060010190808311610c195750505050509050919050565b6001600160a01b0381163314610c615760405163334bd91960e11b815260040160405180910390fd5b610c6b82826114a7565b505050565b6000610c7b81611406565b610c936000805160206124e383398151915283610ba2565b6040516001600160a01b038316907fc314a8ab46f679df157d309facb47ada7dbb5e5e6f33f130257acb39c8237c4090600090a25050565b60608151835114610cfc5781518351604051635b05999160e01b815260048101929092526024820152604401610832565b600083516001600160401b03811115610d1757610d17611cde565b604051908082528060200260200182016040528015610d40578160200160208202803683370190505b50905060005b8451811015610d8f57602080820286010151610d6a9060208084028701015161050d565b828281518110610d7c57610d7c61228a565b6020908102919091010152600101610d46565b509392505050565b60086020528160005260406000208181548110610db357600080fd5b90600052602060002001600091509150505481565b60009182526003602090815260408084206001600160a01b0393909316845291905290205460ff1690565b6000818152600560205260409020600a8101544211610b675760405162461bcd60e51b81526020600482015260116024820152704576656e746f2061756e2061637469766f60781b6044820152606401610832565b610e53338383611514565b5050565b600061052f6000805160206124e383398151915283610dc8565b60006000805160206124e3833981519152610e8b81611406565b60008511610edb5760405162461bcd60e51b815260206004820152601760248201527f4375706f206465626520736572206d61796f72206120300000000000000000006044820152606401610832565b60008311610f2b5760405162461bcd60e51b815260206004820152601b60248201527f4475726163696f6e206465626520736572206d61796f722061203000000000006044820152606401610832565b600480549081906000610f3d83612271565b909155504290506000610f5186603c6122a0565b610f5b90836122b7565b604080516101608101825285815260208082018e81528284018e905233606084015242608084015260a083018d9052600060c08401819052600160e0850181905261010085018e905261012085018990526101408501879052898252600590935293909320825181559251939450909290820190610fd99082612311565b5060408201516002820190610fee9082612311565b5060608201516003820180546001600160a01b0319166001600160a01b039092169190911790556080820151600482015560a0820151600582015560c0820151600682015560e082015160078201805460ff191691151591909117905561010082015160088201906110609082612311565b50610120820151816009015561014082015181600a0155905050336001600160a01b0316837f81f945738beff591c3eab232e9f3265ce3f12263a2ec7acf84db8dc0fce26a278c85856040516110b8939291906123cf565b60405180910390a3509098975050505050505050565b6000828152600360205260409020600101546110e981611406565b610bc783836114a7565b6001600160a01b03918216600090815260016020908152604080832093909416825291909152205460ff1690565b6060806000806000806000806000600560008b8152602001908152602001600020905080600101816002018260030160009054906101000a90046001600160a01b0316836006015484600501548560070160009054906101000a900460ff16866009015487600a015487805461119690612221565b80601f01602080910402602001604051908101604052809291908181526020018280546111c290612221565b801561120f5780601f106111e45761010080835404028352916020019161120f565b820191906000526020600020905b8154815290600101906020018083116111f257829003601f168201915b5050505050975086805461122290612221565b80601f016020809104026020016040519081016040528092919081815260200182805461124e90612221565b801561129b5780601f106112705761010080835404028352916020019161129b565b820191906000526020600020905b81548152906001019060200180831161127e57829003601f168201915b505050505096509850985098509850985098509850985050919395975091939597565b336001600160a01b03861681148015906112df57506112dd86826110f3565b155b156113105760405163711bec9160e11b81526001600160a01b03808316600483015287166024820152604401610832565b610af486868686866115aa565b60006001600160e01b03198216637965db0b60e01b148061052f575061052f82611638565b6001600160a01b03841661136c57604051632bfa23e760e11b815260006004820152602401610832565b60408051600180825260208201869052818301908152606082018590526080820190925290610af4600087848487611688565b6001600160a01b0384166113c957604051632bfa23e760e11b815260006004820152602401610832565b6001600160a01b0385166113f257604051626a0d4560e21b815260006004820152602401610832565b6113ff8585858585611688565b5050505050565b61141081336116db565b50565b600061141f8383610dc8565b61149f5760008381526003602090815260408083206001600160a01b03861684529091529020805460ff191660011790556114573390565b6001600160a01b0316826001600160a01b0316847f2f8788117e7eff1d82e926ec794901d17c78024a50270940304540a733656f0d60405160405180910390a450600161052f565b50600061052f565b60006114b38383610dc8565b1561149f5760008381526003602090815260408083206001600160a01b0386168085529252808320805460ff1916905551339286917ff6391f5c32d9c69d2a47ea670b442974b53935d1edc7fd64eb21e047a839171b9190a450600161052f565b6001600160a01b03821661153d5760405162ced3e160e81b815260006004820152602401610832565b6001600160a01b03838116600081815260016020908152604080832094871680845294825291829020805460ff191686151590811790915591519182527f17307eab39ab6107e8899845ad3d59bd9653f200f220920489ca2b5937696c31910160405180910390a3505050565b6001600160a01b0384166115d457604051632bfa23e760e11b815260006004820152602401610832565b6001600160a01b0385166115fd57604051626a0d4560e21b815260006004820152602401610832565b6040805160018082526020820186905281830190815260608201859052608082019092529061162f8787848487611688565b50505050505050565b60006001600160e01b03198216636cdb3d1360e11b148061166957506001600160e01b031982166303a24d0760e21b145b8061052f57506301ffc9a760e01b6001600160e01b031983161461052f565b61169485858585611714565b6001600160a01b038416156113ff57825133906001036116cd57602084810151908401516116c6838989858589611928565b5050610af4565b610af4818787878787611a4c565b6116e58282610dc8565b610e535760405163e2517d3f60e01b81526001600160a01b038216600482015260248101839052604401610832565b80518251146117435781518151604051635b05999160e01b815260048101929092526024820152604401610832565b3360005b8351811015611849576020818102858101820151908501909101516001600160a01b038816156117fa576000828152602081815260408083206001600160a01b038c168452909152902054818110156117d3576040516303dee4c560e01b81526001600160a01b038a166004820152602481018290526044810183905260648101849052608401610832565b6000838152602081815260408083206001600160a01b038d16845290915290209082900390555b6001600160a01b0387161561183f576000828152602081815260408083206001600160a01b038b168452909152812080548392906118399084906122b7565b90915550505b5050600101611747565b5082516001036118ca5760208301516000906020840151909150856001600160a01b0316876001600160a01b0316846001600160a01b03167fc3d58168c5ae7397731d063d5bbf3d657854427343f4c083240f7aacaa2d0f6285856040516118bb929190918252602082015260400190565b60405180910390a450506113ff565b836001600160a01b0316856001600160a01b0316826001600160a01b03167f4a39dc06d4c0dbc64b70af90fd698a233a518aa5d07e595d983b8c0526c8f7fb86866040516119199291906123f4565b60405180910390a45050505050565b6001600160a01b0384163b15610af45760405163f23a6e6160e01b81526001600160a01b0385169063f23a6e619061196c9089908990889088908890600401612422565b6020604051808303816000875af19250505080156119a7575060408051601f3d908101601f191682019092526119a491810190612467565b60015b611a10573d8080156119d5576040519150601f19603f3d011682016040523d82523d6000602084013e6119da565b606091505b508051600003611a0857604051632bfa23e760e11b81526001600160a01b0386166004820152602401610832565b805181602001fd5b6001600160e01b0319811663f23a6e6160e01b1461162f57604051632bfa23e760e11b81526001600160a01b0386166004820152602401610832565b6001600160a01b0384163b15610af45760405163bc197c8160e01b81526001600160a01b0385169063bc197c8190611a909089908990889088908890600401612484565b6020604051808303816000875af1925050508015611acb575060408051601f3d908101601f19168201909252611ac891810190612467565b60015b611af9573d8080156119d5576040519150601f19603f3d011682016040523d82523d6000602084013e6119da565b6001600160e01b0319811663bc197c8160e01b1461162f57604051632bfa23e760e11b81526001600160a01b0386166004820152602401610832565b80356001600160a01b0381168114611b4c57600080fd5b919050565b60008060408385031215611b6457600080fd5b611b6d83611b35565b946020939093013593505050565b6001600160e01b03198116811461141057600080fd5b600060208284031215611ba357600080fd5b8135611bae81611b7b565b9392505050565b600060208284031215611bc757600080fd5b5035919050565b6000815180845260005b81811015611bf457602081850181015186830182015201611bd8565b506000602082860101526020601f19601f83011685010191505092915050565b8b815261016060208201526000611c2f61016083018d611bce565b8281036040840152611c41818d611bce565b6001600160a01b038c166060850152608084018b905260a084018a905260c0840189905287151560e08501528381036101008501529050611c828187611bce565b610120840195909552505061014001529998505050505050505050565b602081526000611bae6020830184611bce565b60008060408385031215611cc557600080fd5b82359150611cd560208401611b35565b90509250929050565b634e487b7160e01b600052604160045260246000fd5b604051601f8201601f191681016001600160401b0381118282101715611d1c57611d1c611cde565b604052919050565b600082601f830112611d3557600080fd5b8135602083016000806001600160401b03841115611d5557611d55611cde565b50601f8301601f1916602001611d6a81611cf4565b915050828152858383011115611d7f57600080fd5b82826020830137600092810160200192909252509392505050565b600080600060608486031215611daf57600080fd5b833592506020840135915060408401356001600160401b03811115611dd357600080fd5b611ddf86828701611d24565b9150509250925092565b60006001600160401b03821115611e0257611e02611cde565b5060051b60200190565b600082601f830112611e1d57600080fd5b8135611e30611e2b82611de9565b611cf4565b8082825260208201915060208360051b860101925085831115611e5257600080fd5b602085015b83811015611e6f578035835260209283019201611e57565b5095945050505050565b600080600080600060a08688031215611e9157600080fd5b611e9a86611b35565b9450611ea860208701611b35565b935060408601356001600160401b03811115611ec357600080fd5b611ecf88828901611e0c565b93505060608601356001600160401b03811115611eeb57600080fd5b611ef788828901611e0c565b92505060808601356001600160401b03811115611f1357600080fd5b611f1f88828901611d24565b9150509295509295909350565b600060208284031215611f3e57600080fd5b611bae82611b35565b600081518084526020840193506020830160005b82811015611f79578151865260209586019590910190600101611f5b565b5093949350505050565b602081526000611bae6020830184611f47565b60008060408385031215611fa957600080fd5b82356001600160401b03811115611fbf57600080fd5b8301601f81018513611fd057600080fd5b8035611fde611e2b82611de9565b8082825260208201915060208360051b85010192508783111561200057600080fd5b6020840193505b828410156120295761201884611b35565b825260209384019390910190612007565b945050505060208301356001600160401b0381111561204757600080fd5b61205385828601611e0c565b9150509250929050565b6000806040838503121561207057600080fd5b61207983611b35565b91506020830135801515811461208e57600080fd5b809150509250929050565b600080600080600060a086880312156120b157600080fd5b85356001600160401b038111156120c757600080fd5b6120d388828901611d24565b95505060208601356001600160401b038111156120ef57600080fd5b6120fb88828901611d24565b9450506040860135925060608601356001600160401b0381111561211e57600080fd5b61212a88828901611d24565b95989497509295608001359392505050565b6000806040838503121561214f57600080fd5b61215883611b35565b9150611cd560208401611b35565b6101008152600061217b61010083018b611bce565b828103602084015261218d818b611bce565b6001600160a01b0399909916604084015250506060810195909552608085019390935290151560a084015260c083015260e09091015292915050565b600080600080600060a086880312156121e157600080fd5b6121ea86611b35565b94506121f860208701611b35565b9350604086013592506060860135915060808601356001600160401b03811115611f1357600080fd5b600181811c9082168061223557607f821691505b60208210810361225557634e487b7160e01b600052602260045260246000fd5b50919050565b634e487b7160e01b600052601160045260246000fd5b6000600182016122835761228361225b565b5060010190565b634e487b7160e01b600052603260045260246000fd5b808202811582820484141761052f5761052f61225b565b8082018082111561052f5761052f61225b565b601f821115610c6b57806000526020600020601f840160051c810160208510156122f15750805b601f840160051c820191505b818110156113ff57600081556001016122fd565b81516001600160401b0381111561232a5761232a611cde565b61233e816123388454612221565b846122ca565b6020601f821160018114612372576000831561235a5750848201515b600019600385901b1c1916600184901b1784556113ff565b600084815260208120601f198516915b828110156123a25787850151825560209485019460019092019101612382565b50848210156123c05786840151600019600387901b60f8161c191681555b50505050600190811b01905550565b6060815260006123e26060830186611bce565b60208301949094525060400152919050565b6040815260006124076040830185611f47565b82810360208401526124198185611f47565b95945050505050565b6001600160a01b03868116825285166020820152604081018490526060810183905260a06080820181905260009061245c90830184611bce565b979650505050505050565b60006020828403121561247957600080fd5b8151611bae81611b7b565b6001600160a01b0386811682528516602082015260a0604082018190526000906124b090830186611f47565b82810360608401526124c28186611f47565b905082810360808401526124d68185611bce565b9897505050505050505056fe577f08e4a510a24c05fb531f78cace5d373d442eb2ba1e22f5bcf2bf4248c21ea26469706673582212202f50a55fa4bae2db80c076d675e2d5c9dbec06dfaf5414827311f73820a8ce6b64736f6c634300081e0033",
  "devdoc": {
    "details": "Sistema de certificacin de asistencia con QR dinmico y POAPs",
    "errors": {
      "AccessControlBadConfirmation()": [
        {
          "details": "The caller of a function is not the expected one. NOTE: Don't confuse with {AccessControlUnauthorizedAccount}."
        }
      ],
      "AccessControlUnauthorizedAccount(address,bytes32)": [
        {
          "details": "The `account` is missing a role."
        }
      ],
      "ERC1155InsufficientBalance(address,uint256,uint256,uint256)": [
        {
          "details": "Indicates an error related to the current `balance` of a `sender`. Used in transfers.",
          "params": {
            "balance": "Current balance for the interacting account.",
            "needed": "Minimum amount required to perform a transfer.",
            "sender": "Address whose tokens are being transferred.",
            "tokenId": "Identifier number of a token."
          }
        }
      ],
      "ERC1155InvalidApprover(address)": [
        {
          "details": "Indicates a failure with the `approver` of a token to be approved. Used in approvals.",
          "params": {
            "approver": "Address initiating an approval operation."
          }
        }
      ],
      "ERC1155InvalidArrayLength(uint256,uint256)": [
        {
          "details": "Indicates an array length mismatch between ids and values in a safeBatchTransferFrom operation. Used in batch transfers.",
          "params": {
            "idsLength": "Length of the array of token identifiers",
            "valuesLength": "Length of the array of token amounts"
          }
        }
      ],
      "ERC1155InvalidOperator(address)": [
        {
          "details": "Indicates a failure with the `operator` to be approved. Used in approvals.",
          "params": {
            "operator": "Address that may be allowed to operate on tokens without being their owner."
          }
        }
      ],
      "ERC1155InvalidReceiver(address)": [
        {
          "details": "Indicates a failure with the token `receiver`. Used in transfers.",
          "params": {
            "receiver": "Address to which tokens are being transferred."
          }
        }
      ],
      "ERC1155InvalidSender(address)": [
        {
          "details": "Indicates a failure with the token `sender`. Used in transfers.",
          "params": {
            "sender": "Address whose tokens are being transferred."
          }
        }
      ],
      "ERC1155MissingApprovalForAll(address,address)": [
        {
          "details": "Indicates a failure with the `operator`s approval. Used in transfers.",
          "params": {
            "operator": "Address that may be allowed to operate on tokens without being their owner.",
            "owner": "Address of the current owner of a token."
          }
        }
      ]
    },
    "events": {
      "ApprovalForAll(address,address,bool)": {
        "details": "Emitted when `account` grants or revokes permission to `operator` to transfer their tokens, according to `approved`."
      },
      "RoleAdminChanged(bytes32,bytes32,bytes32)": {
        "details": "Emitted when `newAdminRole` is set as ``role``'s admin role, replacing `previousAdminRole` `DEFAULT_ADMIN_ROLE` is the starting admin for all roles, despite {RoleAdminChanged} not being emitted signaling this."
      },
      "RoleGranted(bytes32,address,address)": {
        "details": "Emitted when `account` is granted `role`. `sender` is the account that originated the contract call, an admin role bearer except when using {AccessControl-_setupRole}."
      },
      "RoleRevoked(bytes32,address,address)": {
        "details": "Emitted when `account` is revoked `role`. `sender` is the account that originated the contract call:   - if using `revokeRole`, it is the admin role bearer   - if using `renounceRole`, it is the role bearer (i.e. `account`)"
      },
      "TransferBatch(address,address,address,uint256[],uint256[])": {
        "details": "Equivalent to multiple {TransferSingle} events, where `operator`, `from` and `to` are the same for all transfers."
      },
      "TransferSingle(address,address,address,uint256,uint256)": {
        "details": "Emitted when `value` amount of tokens of type `id` are transferred from `from` to `to` by `operator`."
      },
      "URI(string,uint256)": {
        "details": "Emitted when the URI for token type `id` changes to `value`, if it is a non-programmatic URI. If an {URI} event was emitted for `id`, the standard https://eips.ethereum.org/EIPS/eip-1155#metadata-extensions[guarantees] that `value` will equal the value returned by {IERC1155MetadataURI-uri}."
      }
    },
    "kind": "dev",
    "methods": {
      "balanceOf(address,uint256)": {
        "details": "See {IERC1155-balanceOf}."
      },
      "balanceOfBatch(address[],uint256[])": {
        "details": "See {IERC1155-balanceOfBatch}. Requirements: - `accounts` and `ids` must have the same length."
      },
      "getRoleAdmin(bytes32)": {
        "details": "Returns the admin role that controls `role`. See {grantRole} and {revokeRole}. To change a role's admin, use {_setRoleAdmin}."
      },
      "grantRole(bytes32,address)": {
        "details": "Grants `role` to `account`. If `account` had not been already granted `role`, emits a {RoleGranted} event. Requirements: - the caller must have ``role``'s admin role. May emit a {RoleGranted} event."
      },
      "hasRole(bytes32,address)": {
        "details": "Returns `true` if `account` has been granted `role`."
      },
      "isApprovedForAll(address,address)": {
        "details": "See {IERC1155-isApprovedForAll}."
      },
      "markAttendanceWithQR(uint256,uint256,bytes)": {
        "details": "Para produccin (v2.0), reactivar validacin de firma criptogrfica"
      },
      "renounceRole(bytes32,address)": {
        "details": "Revokes `role` from the calling account. Roles are often managed via {grantRole} and {revokeRole}: this function's purpose is to provide a mechanism for accounts to lose their privileges if they are compromised (such as when a trusted device is misplaced). If the calling account had been revoked `role`, emits a {RoleRevoked} event. Requirements: - the caller must be `callerConfirmation`. May emit a {RoleRevoked} event."
      },
      "revokeRole(bytes32,address)": {
        "details": "Revokes `role` from `account`. If `account` had been granted `role`, emits a {RoleRevoked} event. Requirements: - the caller must have ``role``'s admin role. May emit a {RoleRevoked} event."
      },
      "safeBatchTransferFrom(address,address,uint256[],uint256[],bytes)": {
        "details": "See {IERC1155-safeBatchTransferFrom}."
      },
      "safeTransferFrom(address,address,uint256,uint256,bytes)": {
        "details": "See {IERC1155-safeTransferFrom}."
      },
      "setApprovalForAll(address,bool)": {
        "details": "See {IERC1155-setApprovalForAll}."
      }
    },
    "title": "QRonos - MVP Demo Version",
    "version": 1
  },
  "userdoc": {
    "kind": "user",
    "methods": {
      "markAttendanceWithQR(uint256,uint256,bytes)": {
        "notice": "Marcar asistencia - VERSIN DEMO (sin validacin de firma)"
      }
    },
    "notice": "Versin 1.0 para demo - Validacin de firma desactivada temporalmente",
    "version": 1
  },
  "storageLayout": {
    "storage": [
      {
        "astId": 557,
        "contract": "contracts/QRonos.sol:QRonos",
        "label": "_balances",
        "offset": 0,
        "slot": "0",
        "type": "t_mapping(t_uint256,t_mapping(t_address,t_uint256))"
      },
      {
        "astId": 563,
        "contract": "contracts/QRonos.sol:QRonos",
        "label": "_operatorApprovals",
        "offset": 0,
        "slot": "1",
        "type": "t_mapping(t_address,t_mapping(t_address,t_bool))"
      },
      {
        "astId": 565,
        "contract": "contracts/QRonos.sol:QRonos",
        "label": "_uri",
        "offset": 0,
        "slot": "2",
        "type": "t_string_storage"
      },
      {
        "astId": 26,
        "contract": "contracts/QRonos.sol:QRonos",
        "label": "_roles",
        "offset": 0,
        "slot": "3",
        "type": "t_mapping(t_bytes32,t_struct(RoleData)21_storage)"
      },
      {
        "astId": 3202,
        "contract": "contracts/QRonos.sol:QRonos",
        "label": "eventCounter",
        "offset": 0,
        "slot": "4",
        "type": "t_uint256"
      },
      {
        "astId": 3207,
        "contract": "contracts/QRonos.sol:QRonos",
        "label": "events",
        "offset": 0,
        "slot": "5",
        "type": "t_mapping(t_uint256,t_struct(ClassEvent)3200_storage)"
      },
      {
        "astId": 3213,
        "contract": "contracts/QRonos.sol:QRonos",
        "label": "hasAttended",
        "offset": 0,
        "slot": "6",
        "type": "t_mapping(t_uint256,t_mapping(t_address,t_bool))"
      },
      {
        "astId": 3219,
        "contract": "contracts/QRonos.sol:QRonos",
        "label": "attendanceTimestamp",
        "offset": 0,
        "slot": "7",
        "type": "t_mapping(t_uint256,t_mapping(t_address,t_uint256))"
      },
      {
        "astId": 3224,
        "contract": "contracts/QRonos.sol:QRonos",
        "label": "studentEvents",
        "offset": 0,
        "slot": "8",
        "type": "t_mapping(t_address,t_array(t_uint256)dyn_storage)"
      }
    ],
    "types": {
      "t_address": {
        "encoding": "inplace",
        "label": "address",
        "numberOfBytes": "20"
      },
      "t_array(t_uint256)dyn_storage": {
        "base": "t_uint256",
        "encoding": "dynamic_array",
        "label": "uint256[]",
        "numberOfBytes": "32"
      },
      "t_bool": {
        "encoding": "inplace",
        "label": "bool",
        "numberOfBytes": "1"
      },
      "t_bytes32": {
        "encoding": "inplace",
        "label": "bytes32",
        "numberOfBytes": "32"
      },
      "t_mapping(t_address,t_array(t_uint256)dyn_storage)": {
        "encoding": "mapping",
        "key": "t_address",
        "label": "mapping(address => uint256[])",
        "numberOfBytes": "32",
        "value": "t_array(t_uint256)dyn_storage"
      },
      "t_mapping(t_address,t_bool)": {
        "encoding": "mapping",
        "key": "t_address",
        "label": "mapping(address => bool)",
        "numberOfBytes": "32",
        "value": "t_bool"
      },
      "t_mapping(t_address,t_mapping(t_address,t_bool))": {
        "encoding": "mapping",
        "key": "t_address",
        "label": "mapping(address => mapping(address => bool))",
        "numberOfBytes": "32",
        "value": "t_mapping(t_address,t_bool)"
      },
      "t_mapping(t_address,t_uint256)": {
        "encoding": "mapping",
        "key": "t_address",
        "label": "mapping(address => uint256)",
        "numberOfBytes": "32",
        "value": "t_uint256"
      },
      "t_mapping(t_bytes32,t_struct(RoleData)21_storage)": {
        "encoding": "mapping",
        "key": "t_bytes32",
        "label": "mapping(bytes32 => struct AccessControl.RoleData)",
        "numberOfBytes": "32",
        "value": "t_struct(RoleData)21_storage"
      },
      "t_mapping(t_uint256,t_mapping(t_address,t_bool))": {
        "encoding": "mapping",
        "key": "t_uint256",
        "label": "mapping(uint256 => mapping(address => bool))",
        "numberOfBytes": "32",
        "value": "t_mapping(t_address,t_bool)"
      },
      "t_mapping(t_uint256,t_mapping(t_address,t_uint256))": {
        "encoding": "mapping",
        "key": "t_uint256",
        "label": "mapping(uint256 => mapping(address => uint256))",
        "numberOfBytes": "32",
        "value": "t_mapping(t_address,t_uint256)"
      },
      "t_mapping(t_uint256,t_struct(ClassEvent)3200_storage)": {
        "encoding": "mapping",
        "key": "t_uint256",
        "label": "mapping(uint256 => struct QRonos.ClassEvent)",
        "numberOfBytes": "32",
        "value": "t_struct(ClassEvent)3200_storage"
      },
      "t_string_storage": {
        "encoding": "bytes",
        "label": "string",
        "numberOfBytes": "32"
      },
      "t_struct(ClassEvent)3200_storage": {
        "encoding": "inplace",
        "label": "struct QRonos.ClassEvent",
        "members": [
          {
            "astId": 3179,
            "contract": "contracts/QRonos.sol:QRonos",
            "label": "eventId",
            "offset": 0,
            "slot": "0",
            "type": "t_uint256"
          },
          {
            "astId": 3181,
            "contract": "contracts/QRonos.sol:QRonos",
            "label": "courseName",
            "offset": 0,
            "slot": "1",
            "type": "t_string_storage"
          },
          {
            "astId": 3183,
            "contract": "contracts/QRonos.sol:QRonos",
            "label": "courseCode",
            "offset": 0,
            "slot": "2",
            "type": "t_string_storage"
          },
          {
            "astId": 3185,
            "contract": "contracts/QRonos.sol:QRonos",
            "label": "professor",
            "offset": 0,
            "slot": "3",
            "type": "t_address"
          },
          {
            "astId": 3187,
            "contract": "contracts/QRonos.sol:QRonos",
            "label": "eventTimestamp",
            "offset": 0,
            "slot": "4",
            "type": "t_uint256"
          },
          {
            "astId": 3189,
            "contract": "contracts/QRonos.sol:QRonos",
            "label": "maxAttendees",
            "offset": 0,
            "slot": "5",
            "type": "t_uint256"
          },
          {
            "astId": 3191,
            "contract": "contracts/QRonos.sol:QRonos",
            "label": "currentAttendees",
            "offset": 0,
            "slot": "6",
            "type": "t_uint256"
          },
          {
            "astId": 3193,
            "contract": "contracts/QRonos.sol:QRonos",
            "label": "isActive",
            "offset": 0,
            "slot": "7",
            "type": "t_bool"
          },
          {
            "astId": 3195,
            "contract": "contracts/QRonos.sol:QRonos",
            "label": "metadata",
            "offset": 0,
            "slot": "8",
            "type": "t_string_storage"
          },
          {
            "astId": 3197,
            "contract": "contracts/QRonos.sol:QRonos",
            "label": "startTime",
            "offset": 0,
            "slot": "9",
            "type": "t_uint256"
          },
          {
            "astId": 3199,
            "contract": "contracts/QRonos.sol:QRonos",
            "label": "endTime",
            "offset": 0,
            "slot": "10",
            "type": "t_uint256"
          }
        ],
        "numberOfBytes": "352"
      },
      "t_struct(RoleData)21_storage": {
        "encoding": "inplace",
        "label": "struct AccessControl.RoleData",
        "members": [
          {
            "astId": 18,
            "contract": "contracts/QRonos.sol:QRonos",
            "label": "hasRole",
            "offset": 0,
            "slot": "0",
            "type": "t_mapping(t_address,t_bool)"
          },
          {
            "astId": 20,
            "contract": "contracts/QRonos.sol:QRonos",
            "label": "adminRole",
            "offset": 0,
            "slot": "1",
            "type": "t_bytes32"
          }
        ],
        "numberOfBytes": "64"
      },
      "t_uint256": {
        "encoding": "inplace",
        "label": "uint256",
        "numberOfBytes": "32"
      }
    }
  }
}